:020000040800F2
:10000000581D0020C50100085B1B0008A519000849
:10001000591B0008D1020008052400080000000058
:10002000000000000000000000000000711C00083B
:1000300097090008000000005D1B0008911C0008E3
:10004000DF010008DF010008DF010008DF01000810
:10005000DF010008DF010008DF010008DF01000800
:10006000DF010008DF010008DF010008DF010008F0
:10007000DF010008DF010008DF010008DF010008E0
:10008000DF010008DF010008DF010008DF010008D0
:10009000DF010008DF010008DF010008DF010008C0
:1000A000DF010008DF010008DF010008DF010008B0
:1000B000DF010008DF010008DF010008DF010008A0
:1000C000DF010008DF010008DF010008DF01000890
:1000D000DF010008DF010008DF010008DF01000880
:1000E000DF010008DF010008DF010008DF01000870
:1000F000DF010008DF010008DF010008DF01000860
:10010000DF010008DF010008DF010008DF0100084F
:10011000DF010008DF010008DF01000825220008D8
:10012000DF010008DF010008DF010008DF0100082F
:10013000DF010008DF010008DF010008DF0100081F
:10014000DF010008DF010008DF010008DF0100080F
:10015000DF010008DF010008DF010008DF010008FF
:10016000DF010008DF010008DF010008DF010008EF
:10017000DF010008DF010008DF01000800000000C7
:10018000DF010008DF010008DF010008DF010008CF
:10019000DF010008DF010008DF010008DF010008BF
:1001A000DF010008DF010008DF010008DFF810D0E0
:1001B00000F07CF8004800475D240008AFF30080A1
:1001C000581D00200648804706480047FEE7FEE726
:1001D000FEE7FEE7FEE7FEE7FEE7FEE7FEE7FEE7F7
:1001E000351D0008AD0100082DE9F05F054600202F
:1001F00092469B4688460646814640241BE0284698
:1002000041464746224600F041F853465A46C01A36
:10021000914110D311461846224600F028F82D1AB5
:1002200067EB01084F4622460120002100F01FF82D
:1002300017EB00094E41201EA4F10104DFDC484603
:1002400031462A464346BDE8F09FD2B201E000F8AD
:10025000012B491EFBD270470022F6E710B513466A
:100260000A4604461946FFF7F0FF204610BD202A33
:1002700004DB203A00FA02F1002070479140C2F1FD
:10028000200320FA03F3194390407047202A04DB2F
:10029000203A21FA02F00021704721FA02F3D040FF
:1002A000C2F120029140084319467047064C074DA1
:1002B00006E0E06840F0010394E807009847103436
:1002C000AC42F6D3FFF776FFFC2400081C2500089B
:1002D000FEE770B50D46044601894068002200F033
:1002E0008CFC0621204602F0F2F82946204602F056
:1002F000F6F8204602F0E8F80546218901226068F8
:1003000000F07BFC284670BD70B50446018940684A
:10031000002200F072FC1921204602F0D8F80220D9
:1003200002F092F8204602F0CFF80546204602F08F
:10033000CBF805EB002085B221890122606800F02E
:100340005CFC284670BD70B50446018940680022F7
:1003500000F053FC2621204602F0B9F8204602F0B6
:10036000B3F8054621890122606800F046FC284662
:1003700070BD70B50C4616460546018940680022DE
:1003800000F03BFC2D21284602F0A1F821782846F8
:1003900002F0A5F80024284602F096F8641CE4B2A6
:1003A00006F8010B062CF6D329896868BDE8704071
:1003B000012200F022BC70B5054600240189406886
:1003C000224600F01AFC2721284602F080F82989ED
:1003D0000122686800F011FC0A2002F033F8284678
:1003E00000F065F8102805D12046641CE4B2C82846
:1003F000F2D9FA2070BD70B5044601894068002228
:1004000000F0FBFB2321204602F061F80025E17F8C
:10041000204602F064F86D1CEDB2042DF7D321895B
:100420006068BDE87040012200F0E7BB70B504468B
:1004300001894068002200F0E0FB2221204602F002
:1004400046F800256019C17E204602F048F86D1C70
:10045000EDB2042DF6D321896068BDE87040012219
:1004600000F0CBBB70B50E460546002401894068FC
:10047000224600F0C2FB3D21284602F028F83178E0
:10048000284602F02CF829890122686800F0B5FBA3
:10049000052001F0D7FF284600F009F8102805D103
:1004A0002046641CE4B2C828F2D9FA2070BD70B5A9
:1004B000044601894068002200F09FFB2C21204661
:1004C00002F005F8204601F0FFFF054621890122D0
:1004D000606800F092FB284670BD2DE9F0411F4690
:1004E00015000C46064629D031890022706800F0BC
:1004F00084FB3C21304601F0EAFF2178304601F0D0
:10050000EEFFE9B2304601F0EAFF290A304601F079
:10051000E6FF012001F098FF002406E0304601F0DC
:10052000D3FF641C07F8010BA4B2AC42F6D33189A7
:100530007068BDE8F041012200F05FBBBDE8F081CA
:1005400070B50D46044601894068002200F055FB55
:100550003B21204601F0BBFF2978204601F0BFFF78
:10056000204601F0B1FF0546204601F0ADFF05EB46
:10057000002085B221890122606800F03EFB2846F8
:1005800070BD70B50D46044601894068002200F038
:1005900034FB3021204601F09AFF2978204601F0F3
:1005A0009EFF022001F050FF204601F08DFF05461E
:1005B00021890122606800F020FB284670BD70B5DB
:1005C0000E460546002401894068224600F015FBCE
:1005D0003521284601F07BFF3178284601F07FFF66
:1005E00029890122686800F008FB052001F02AFF34
:1005F0002846FFF75CFF102805D12046641CE4B2B2
:10060000C828F2D9FA2070BD2DE9F0410C461746F2
:10061000054601891E464068002200F0EEFA3921A5
:10062000284601F054FF2178284601F058FFF1B226
:10063000284601F054FF310A284601F050FF0024FB
:1006400007E000BF17F8011B284601F048FF641CB3
:10065000A4B2B442F6D329896868BDE8F04101220A
:1006600000F0CBBA70B50D460446018940680022FF
:1006700000F0C3FA3421204601F029FF29782046F2
:1006800001F02DFFE97A204601F029FF21896068F9
:10069000BDE87040012200F0B0BA2DE9F0410D46EE
:1006A0001746044601891E464068002200F0A5FA5C
:1006B0005221204601F00BFF2978204601F00FFF60
:1006C0003946204601F00BFF3146204601F007FF76
:1006D00021896068BDE8F041012200F08EBA2DE961
:1006E000F0410D461746044601891E464068002227
:1006F00000F083FA5321204601F0E9FE29782046D4
:1007000001F0EDFE3946204601F0E9FE3146204673
:1007100001F0E5FE21896068BDE8F041012200F0AA
:100720006CBA70B50D46044601894068002200F09D
:1007300064FA3321204601F0CAFE2978204601F0F0
:10074000CEFEA97D204601F0CAFEE88A010A2046B5
:1007500001F0C5FE21896068BDE87040012200F00B
:100760004CBA70B50C46054601894068002200F07D
:1007700044FA5521284601F0AAFEE1B2284601F0CC
:10078000AEFEC4F30721284601F0A9FEC4F30741D9
:10079000284601F0A4FE210E284601F0A0FE29897A
:1007A0006868BDE87040012200F027BAFEB50C462B
:1007B0000646FFF7E6FE0546C00703D02146304651
:1007C00000F0E8F8680715D521463046FFF7B8FE77
:1007D000A083002852D04FF48061884200D9A183C1
:1007E000A28B21463046236AFFF777FE214630462A
:1007F00000F0C8F8280716D5607B012813D16A4697
:1008000021463046FFF7B5FD9DF805009DF8041020
:1008100000EB0120A0820020694623180A5C401CDE
:100820005A700428F9DBE80612D5E07A03280FD1C4
:1008300021463046FFF716FE21463046FFF7BFFE41
:10084000FA2818D02146304600F019F8FA2813D0BB
:10085000680613D521463046FFF704FE2146304690
:10086000FFF7ADFEFA2808D02146304600F007F821
:10087000FA2803D1FEE7FEE7FEE7FEE7FEBD70B50E
:100880000E460546002401894068224600F0B5F96D
:100890003621284601F01BFE3178284601F01FFE64
:1008A00029890122686800F0A8F9052001F0CAFD35
:1008B0002846FFF7FCFD102805D12046641CE4B251
:1008C000C828F2D9FA2070BD70B50D46040009D0D1
:1008D00000F041F865212046FFF7FBFC9A2803D081
:1008E000FA2070BDFF2070BD2046FFF79FFD204617
:1008F000FFF781FD08212046FFF733FF2046FFF771
:100900005AFD06460223002229462046FFF7C5FE6F
:1009100002231A4629462046FFF7E1FE304670BD05
:1009200070B50C46050013D094B1FFF79BFE21462D
:100930002846FFF7F6FE21462846FFF740FEFA2834
:1009400008D021462846FFF79AFFFA2801D1FEE792
:10095000FF2070BDFEE701894068012200F04DB91B
:1009600070B50D4606000BD055B1FFF7CDFC04461F
:10097000C00603D529463046FFF718FFE0B270BD28
:10098000FF2070BD888B0249088001F00DB800007F
:10099000100000207047704772B6FEE770B504463D
:1009A00000F030F90546601C02D004480078044489
:1009B00000F028F9401BA042FAD370BD00000020CF
:1009C0002DE9F84FDFF8F4A1002201240AF1040B0D
:1009D00003254FF00F090BF1040E00BF0B6804FA5A
:1009E00002F63340B3426FD10F7907F00307012FAE
:1009F00001D0022F16D187684FEA420805FA08FC99
:100A000027EA0C07D1F80CC00CFA08FC4CEA070CDA
:100A1000C0F808C04768B7430E79C6F30016964081
:100A20003E4346600E79F643B6070AD0C7684FEAE0
:100A3000420C05FA0CF6B7438E6806FA0CF63E43F4
:100A4000C6600E7906F00306022E10D1D60800EB20
:100A50008608D8F8206057074FEAD76C09FA0CF7D8
:100A6000BE430F6907FA0CF73743C8F820700668D1
:100A70004FEA420C05FA0CF7BE430F7907F0030763
:100A800007FA0CF7374307604E68F6001CD54C4E4A
:100A9000376847F480473760366822F0030706F46A
:100AA00080460096474E07EB060CDCF8086897076F
:100AB0003F0F09FA07F826EA0806DFF80C814045DF
:100AC00003D14FF0000841E072E0DFF800814045BB
:100AD00002D14FF0010839E0DFF8F480404502D13F
:100AE0004FF0020832E0DFF8EC80404502D14FF0D1
:100AF00003082BE0DFF8E080404502D14FF0040806
:100B000024E0DFF8D880404502D14FF005081DE011
:100B1000DFF8CC80404502D14FF0060816E0DFF840
:100B2000C480404502D14FF007080FE0DFF8B880DD
:100B3000404502D14FF0080808E0DFF8B08040459A
:100B400002D14FF0090801E04FF00A0808FA07F84F
:100B500048EA0608CCF80888DAF800605746D1F869
:100B600004C09E435FEACC3C00D51E433E60DBF8E8
:100B700000605F46D1F804C09E435FEA8C3C00D51C
:100B80001E433E60DEF800607746D1F804C09E4305
:100B90005FEACC2C00D51E433E60084F0C373E6800
:100BA000D1F804C09E435FEA8C2C00D51E433E6002
:100BB000521C102AFFF412AFBDE8F88F003C014030
:100BC000443802400030014000000240000402406E
:100BD00000080240000C02400010024000140240D5
:100BE00000180240001C0240002002400024024085
:100BF0000069084000D0012070470AB18161704748
:100C00000904FBE7014880687047000000000020ED
:100C1000024881680278114481607047000000201A
:100C20000B4810B5016841F400710160016841F49E
:100C300080610160016841F480710160032000F06F
:100C400089F8002000F006F800F03EF8002010BD02
:100C5000003C024010B5014688B00022372000F069
:100C600059F8372000F048F813480024016841F093
:100C700020010160006805A900F020000690684688
:100C800000F04CF900F06AF90C494000B0FBF1F1BA
:100C90000C480B4A491E026040F2E732C0E90324C7
:100CA000C0E9011400F0E7FC10B1012008B010BD4C
:100CB000044800F00FFDF9E74038024040420F00C1
:100CC00000140040100100200A4808B5016841F4F2
:100CD00080410160006800F4804000900548001FDA
:100CE000016841F080510160006800F08050009080
:100CF00008BD000044380240002809DB00F01F0254
:100D0000012191404009800000F1E020C0F800116D
:100D100070470000F0B40E4B1B680C46C3F302236F
:100D2000C3F10705042D00D90425191D072901D297
:100D3000002300E0DB1E012606FA05F1491E2140D2
:100D400099409E40761E16403143F0BC01F05BBBDB
:100D50000CED00E0064900F0070208684FF6FF03BB
:100D6000184040EA0220034A104308607047000020
:100D70000CED00E00000FA052DE9F8431748016882
:100D800041F0805101600068154F00F0805001264D
:100D900000903E64FFF736FF05464FF47A78114C19
:100DA00005E000BFFFF72EFF401B40450DD86068EF
:100DB000C003F7D57E64FFF725FF0546464607E0EA
:100DC000FFF720FF401BB04202D90320BDE8F883A3
:100DD00060688003F4D50020F8E700004038024046
:100DE00000000E42007000402DE9F0470E4605005D
:100DF00065D0DFF81481D8F80000F7B200F00F00DA
:100E0000B04207D288F80070D8F8000000F00F0058
:100E1000B04254D128683D4C810712D5400703D514
:100E2000206840F4E05020602878000703D520684F
:100E300040F4604020602068A96820F0F00008437A
:100E400020602878C0072DD030496868083901280B
:100E500012D0022813D0032811D00968890700296D
:100E60002DDA216821F0030101432160FFF7CAFE5A
:100E7000814641F2883A0EE009688903EFE7096884
:100E80008901ECE7FFF7BEFEA0EB0901514502D94D
:100E90000320BDE8F0872068696800F00C00B0EB23
:100EA000810FEFD1D8F80010404601F00F01B14298
:100EB00007D90770006800F00F00B04201D0012090
:100EC000E7E72878400705D52068E96820F4E05076
:100ED000084320602878000706D52068296920F497
:100EE000604040EAC100206000F058F82168084ADC
:100EF000C1F30311515CC840064908600648006808
:100F0000FFF7A8FE0020C4E7003C0240083802407A
:100F1000E22400080C000020040000200F220260E0
:100F20000C4A136803F003034360136803F0F003F3
:100F30008360136803F4E053C36012684FF4E05316
:100F400003EAD20202610448006800F00F00086062
:100F50007047000008380240003C02400448054940
:100F600000680968044AC1F38221515CC840704797
:100F70000C00002008380240F2240008044805490B
:100F800000680968044AC1F34231515CC8407047A7
:100F90000C00002008380240F2240008154810B563
:100FA000006810F00C02144813D01449042A0FD022
:100FB000082A0ED10F4C241F2268236802F03F023A
:100FC0005B0207D52068C0F38810A0FB010106E092
:100FD000084610BD2168C1F38811A1FB0001002360
:100FE000FFF702F92168C1F30141491C4900B0FB38
:100FF000F1F010BD083802400024F40040787D0173
:101000002DE9F84F04006ED02078DFF84C93C0072C
:10101000A9F104054AD009F104000168C1F3810176
:10102000012908D00068C0F3810002280AD1D9F84C
:101030000000400206D52868800337D56068002884
:10104000E1D033E06068B0F5803F10D0B0F5A02F5C
:10105000286810D020F480302860286820F4802090
:1010600028606068A8B1FFF7CDFD06460DE028684E
:1010700040F48030F4E740F480202860F7E700BFB8
:10108000FFF7C0FD801B642873D828688003F7D55C
:101090000CE0FFF7B7FD064605E000BFFFF7B2FD25
:1010A000801B6428F0D828688003F7D42078DFF804
:1010B000AC8280074FF0000A3ED5A748001D0168AA
:1010C00011F00C0F08D00068C0F3810002280BD18A
:1010D000D9F80000400207D42868800716D5E068D8
:1010E000012800D112E033E1E068B8B10120C8F86E
:1010F0000000FFF787FD064605E000BFFFF782FD11
:10110000801B0228C0D828688007F7D52868216985
:1011100020F0F80040EAC10028600DE0C8F800A007
:10112000FFF770FD064604E0FFF76CFD801B022808
:101130001FD828688007F7D42078000722D5864F6B
:1011400087486169703771B101210160FFF75AFD6D
:10115000064604E0FFF756FD801B022809D83868D0
:101160008007F7D50EE0C0F800A0FFF74BFD06465C
:1011700005E082E0FFF746FD801B02287DD8386835
:101180008007F7D42078400768D5DFF8CCB1002776
:101190000BF13C0BDBF80000C0000BD4DBF80010B7
:1011A00041F08051CBF80010DBF80000012700F07F
:1011B000805000906B4E3068C00510D4306840F409
:1011C00080703060FFF71EFD009005E0FFF71AFD0C
:1011D0000099401A022850D83068C005F6D55E4EF6
:1011E000A0686C3601280FD00528306810D020F098
:1011F00001003060306820F004003060A068B8B1B1
:10120000FFF700FD00900FE0306840F00100F4E7C8
:1012100040F004003060F7E7FFF7F4FC0099411A52
:1012200041F28830814266D830688007F4D50EE0FC
:10123000FFF7E8FC009007E0FFF7E4FC0099411A93
:1012400041F28830814256D830688007F4D42FB1FB
:10125000DBF8001021F08051CBF80010A069C8B372
:101260003D49091D0968C1F3810102294AD00228BC
:10127000504607D0C8F8600000E03CE0FFF7C2FC31
:1012800004463BE04746C8F86000FFF7BBFC064653
:1012900005E000BFFFF7B6FC801B02282BD82868AA
:1012A0008001F7D4D4E907010843A16A2E4A49080E
:1012B00002EB0141626A41EA8211084394F82C1062
:1012C00040EA0161C9F8001001203866FFF79AFC76
:1012D000044606E03EE000BFFFF794FC001B022836
:1012E00009D828688001F7D534E000BFFFF78AFCF1
:1012F000001B022802D90320BDE8F88F286880016E
:10130000F4D427E00128F7D0D9F80000E26900F40E
:10131000800191421CD1226A00F03F01914217D115
:1013200047F6C071626A0140B1EB821F10D1A26A18
:101330004FF0FF3300F4403103EB5202B1EB024FA8
:1013400006D194F82C1000F07060B0EB016F01D062
:101350000120D1E70020CFE70438024000004742D7
:10136000800E4742007000400000FFFF70B504008F
:1013700009D0606A002540B125616561A56294F8D5
:10138000510040B10CE0012070BD6068B0F5827F73
:10139000F4D0E561F2E784F85050204600F044F8BC
:1013A000022084F851002068016821F040010160AA
:1013B000A088218900F4827001F404410843A189C6
:1013C00001F400610843217C01F002010843217D02
:1013D00001F001010843218B01F400710843217FD2
:1013E00001F03801084394F8201001F0800108430F
:1013F000218D01F40051084321680860A06904218F
:1014000001EA104094F8241001F01001084321680B
:1014100048602068C16921F40061C16165650120EF
:1014200084F85100002070BD10B586B00446142128
:101430006846FEF711FF13492068884220D1124800
:101440000021026842F480520260006800F480507B
:1014500005900D481438026842F0010202600068ED
:1014600000F001000590E02000900220CDE901018C
:10147000032003900520049069460448FFF7A0FA72
:1014800006B010BD00300140443802400000024068
:101490002DE9F84F044690F8500000270A9E1D469B
:1014A00092468B464FF0010901280ED0012084F8A6
:1014B0005000FFF7A7FB804694F8510061680128AF
:1014C0000CD0B1F5827F07D102E00220BDE8F88F91
:1014D000A16809B9042801D00227C2E0BBF1000FBE
:1014E00027D0BAF1000F24D01DB394F8510004287E
:1014F00002D0052084F8510000206065C4F838A0AF
:10150000E587A587C4F830B0E586A58620646064C9
:1015100020680168490603D4016841F04001016078
:10152000E068B0F5006F606805D0E8B3012D46D0E3
:101530007FE0012795E008B1012D39D1206B2168AA
:101540000088C860206B801C2063E08E401EE0860F
:101550002EE02068816889070FD5E18E69B1B9F165
:10156000010F0AD1216B0988C160206B801C2063A8
:10157000E08E401EE0864FF0000920688168C907B0
:101580000CD0E18F51B1C068A16B0880A06B801CAA
:10159000A063E08F401EE0874FF00109FFF732FBA8
:1015A000A0EB0800B04200E009E001D3701C50D16C
:1015B000E08E0028CDD1E08F0028CAD13FE0206B1B
:1015C000216800780873206B401C2063E08E401E69
:1015D000E0862EE02068816889070FD5E18E69B129
:1015E000B9F1010F0AD1216B09780173206B401CFE
:1015F0002063E08E401EE0864FF00009206881687D
:10160000C9070CD0E18F51B1C068A16B0870A06B05
:10161000401CA063E08F401EE0874FF00109FFF7F8
:10162000F1FAA0EB0800B04202D3701C01D010E028
:101630007EB1E08E0028CDD1E08F0028CAD142468D
:101640003146204600F08CFA28B101272020606541
:1016500007E0032705E0A06818B92068C168806822
:101660000090012084F85100002084F85000384692
:101670002CE77047704710B5040003D094F83D0084
:1016800010B107E0012010BD002084F83C00204686
:1016900000F01EF8022084F83D00211D206800F0B3
:1016A000C7FD012084F8460084F83E0084F83F001E
:1016B00084F8400084F8410084F8420084F8430034
:1016C00084F8440084F8450084F83D00002010BDF3
:1016D0007047000090F83D10012901D001207047AB
:1016E000022180F83D100168CA6842F00102CA6018
:1016F00000681149884214D0B0F1804F11D00F49D1
:1017000088420ED00E4988420BD00E49884208D03C
:101710000D49884205D00D49884202D00C498842C3
:1017200004D1816801F00701062903D0016841F066
:1017300001010160002070470000014000040040EA
:1017400000080040000C004000040140004001403F
:1017500000180040704770B50446006801694FF0FA
:101760000005C943890715D4C168C943890711D445
:10177000E91E0161012020772068806980072046EA
:1017800002D0FFF7E7FF04E000F098F8204600F0F1
:1017900096F8257720680169C943490717D4C168BD
:1017A000C943490713D46FF0040101610220207777
:1017B0002068806910F4407F204602D0FFF7CAFFFE
:1017C00004E000F07BF8204600F079F825772068E7
:1017D0000169C943090716D4C168C943090712D46E
:1017E0006FF008010161042020772068C06980073C
:1017F000204602D0FFF7AEFF04E000F05FF820467D
:1018000000F05DF8257720680169C943C90617D43F
:10181000C168C943C90613D46FF0100101610820E3
:1018200020772068C06910F4407F204602D0FFF77F
:1018300091FF04E000F042F8204600F040F82577E0
:1018400020680169C943C90708D1C168C943C907EC
:1018500004D1891E0161204600F032F82068016938
:10186000C943090609D4C168C943090605D46FF004
:10187000800101612046FFF7FCFE20680169C94331
:10188000490609D4C168C943490605D46FF040012F
:101890000161204600F01EF820680169C9438906ED
:1018A0000BD4C168C943890607D46FF020010161D8
:1018B0002046BDE87040FFF7DDBE70BD7047704741
:1018C00000680349884201D1FFF7A2B970470000C0
:1018D00000140040704770B5040004D094F83D0037
:1018E000002510B106E0012070BD84F83C50204670
:1018F00000F022F8242084F83D002068C16821F41B
:101900000051C160204600F0F7FC2068016921F415
:10191000904101612068416921F02A0141612068FC
:10192000C16841F40051C1602564202084F83D0065
:1019300084F83E00002070BD10B586B00446142126
:101940006846FEF789FC14492068884221D1134873
:101950000021026842F010020260006800F01000EE
:1019600005900E481438026842F0010202600068D7
:1019700000F0010005904FF4C06000900220CDE916
:101980000101032003900720049069460448FFF7F3
:1019900017F806B010BD00000010014044380240A6
:1019A00000000240FEE7000010B51549154C88887C
:1019B000238842BA08469B1FC0799A421ED1897972
:1019C000FF2919D2012812D0022810D003280ED0E6
:1019D00004280CD005280AD0062808D00F2806D0E5
:1019E000102804D05FF0010100F0ACF901E000F034
:1019F0000BF80020208010BD0321F5E70421F3E758
:101A00005801002010000020124905280A8953BA05
:101A1000114A9380498949BAD18014D009DC012840
:101A20000FD002280DD0032801D0042811D100F0D6
:101A300069BA062809D00F2809D0102809D100F06A
:101A4000ABBB00F0A1B900F0A3BA00F0E5BA00F01A
:101A500019BB7047580100201000002030B587B036
:101A600014216846FEF7F8FB19480024016841F08C
:101A700004010160016801F004010591016841F071
:101A800080010160016801F080010591016841F069
:101A90000101016000680F4D00F001000590002277
:101AA00010212846FFF7A9F8102000900120CDE969
:101AB0000104694628460394FEF782FFA814CDE985
:101AC0000004694628460294FEF77AFF07B030BD4D
:101AD0003038024000000240104810B50E49016045
:101AE0004FF48271416000218160C1604FF4007247
:101AF0000161C0E905122822C0E907214162816223
:101B00000A21C162FFF732FC002803D0BDE8104073
:101B1000FEF742BF10BD00000030014074000020FD
:101B20000C4810B50A4901604FF4E13141600021D1
:101B300081600C22C160C0E904128161C161FFF7BC
:101B4000CAFE002803D0BDE81040FEF725BF10BD37
:101B500000100140CC000020FEE7FEE770470000C7
:101B600038B504461248134B0068B0FBF3F04FF44D
:101B70007A73584300906068B0F5827F0DD10B46B0
:101B8000009200228021204600F016F870B1606DAE
:101B900040F020006065032038BD009830B1401E41
:101BA000009020688068C0430006F6D5002038BD4C
:101BB0000C00002000366E012DE9F8431E469146C8
:101BC00088460446089DFFF71DF8401B351AFFF7AD
:101BD00019F8074625480068C0F3CB30684338E061
:101BE000701C37D0FFF70EF8C01BA84203D215B106
:101BF000009860B32CE02068416821F0E00141606A
:101C00006068B0F5827F0BD1A068B0F5004F02D0BC
:101C1000B0F5806F04D12068016821F040010160B7
:101C2000A06AB0F5005F09D12068016821F4005175
:101C300001602068016841F400510160012084F8CE
:101C40005100002084F850000320BDE8F8830025EF
:101C5000401E00902068816838EA010004D000210D
:101C60004945BDD10020F0E70121F9E70C00002033
:101C7000704703B583B04FF47A7100910068012377
:101C800001AA04A9FFF704FC9DF8040005B000BDFB
:101C90007047000030B593B030216846FEF7DCFA9B
:101CA00014210CA8FEF7D8FA20480025016841F05D
:101CB00080510160006800F0805011901C4801685C
:101CC00041F4404101600068022400F4404011905A
:101CD0000120039010200490009406940820CDE980
:101CE0000750B420CDE9090404200B906846FFF7A3
:101CF00087F908B172B6FEE7FFF73EF808B172B691
:101D0000FEE70CA90F2081E831004FF4A0500F909E
:101D10004FF48050109005210CA8FFF765F80028BB
:101D200001D072B6FEE713B030BD0000403802406B
:101D3000007000400248016841F470010160704782
:101D400088ED00E00E4B30B403F580621C7814700F
:101D50005C7854709C789470DC78D4700024147192
:101D6000032454719B79937140F08000D071054831
:101D700011720921418030BC104600F09BBB00006D
:101D800058010020100000202DE9F04F594C5A4B0B
:101D90004FF48061A588E688D879AA19ADF2044D80
:101DA0008A427CD203F580621F7817705F78577083
:101DB0009F789770DF78D7709B799371D071F00816
:101DC00073072081002B02D000F10100208180B236
:101DD0009146107203D115B100F1010020814FEA44
:101DE000D50605F007056846FEF736FA218943480F
:101DF000FEF732FA0021424BEA46208907E07218CA
:101E00000AEB41079A5C7A70491CBA70C9B28142E8
:101E1000F5D300214FF0010BA64635E00AEB410255
:101E2000C5F10807537809EB0104EB405370002318
:101E30000FE056785FEAC67C07D094F809800BFA69
:101E400003FC48EA0C0884F8098076085B1C56708D
:101E5000DBB29F42EDDC002312E01679F7070BD0CE
:101E6000A3EB050894F809C008F108080BFA08F775
:101E70004CEA070C84F809C076085B1C1671DBB2CB
:101E8000AB42EAD3491CC9B28142C7D39EF806408F
:101E9000002172464B465D4604F0070400E024E052
:101EA000C4F1080709EB00060CE000BF04EB0108D1
:101EB00005FA08F896F808C0491C2CEA080C86F8C0
:101EC00008C0C9B28F42F1D8C01C1081010A197133
:101ED00089F80500801D81B208485180093800F05A
:101EE000E9FA0DF2044DBDE8F08F0221FFF72AFF59
:101EF000F7E70000100000205801002061050020D5
:101F000058090020F0B41F4A1F4B9588D488D8790F
:101F10002919B1F5806F30D203F580611E780E70FB
:101F20005E784E709E788E70DE78CE709B798B7165
:101F3000C8714FF6FF7000EA440010810872002358
:101F400001F500670BE0EE1801EB430C37F8166063
:101F50008CF80960360A5B1C8CF80A609BB2A342BD
:101F6000F1D3C01C1081030A0B714871801D81B22E
:101F70005180F0BC054800F09DBAF0BC0221FFF78B
:101F8000E1BE00001000002058010020580500208C
:101F9000F0B41D4B1D499C88C879B4F5806F2ED2D2
:101FA00001F580620D7815704D7855708D789570BB
:101FB000CD78D5700D7915714D7955718D799571F3
:101FC000D071087A1072487A50728D7A9572CE7AF2
:101FD000D672E1080E4804F00702FF2D09D0FF2E4B
:101FE00007D0002101550C215980F0BC094800F0B0
:101FF00061BA445C012595402C434454F3E7F0BC9E
:102000000221FFF79FBE00001000002058010020B1
:102010005809002058050020184B30B418499C88F6
:10202000C879B4F5806F25D201F580620D781570FE
:102030004D7855708D789570CD78D5700D79157176
:102040004D7955718D799571D071087A1072487AF1
:102050005072887A9072C97AD17202F5006240EAB1
:10206000012022F814000C21598030BCA2F5006038
:1020700000F020BA30BC0221FFF764BE100000203F
:10208000580100202DE9F04F404A414CC1B09388DF
:10209000D0881918E079B1F5806F73D204F58061AA
:1020A00025780D7065784D70A5788D70E578CD70C8
:1020B00000250D7107254D71A5798D71C871207AA4
:1020C0000872607A4872A07A8872E07AC872217BBE
:1020D0004FEAD30903F0070504F50060491CFEF739
:1020E000BBF8002004F5006EEB46A2463CE000BFC2
:1020F0000AEB00020021537B0BF80030C5F1080306
:1021000009EB000412E0577BFE070BD001F0070833
:1021100001261EF804C006FA08F6AE404CEA060C8A
:102120000EF804C07E08491C567389B28B42EADC63
:1021300000215A4604EB0E0612E0145C24FA03F761
:10214000FF0709D0777801F007084FF0010C0CFA6F
:1021500008FC47EA0C0777706408491C145489B2DC
:10216000A942EAD3401C80B29AF80C208242BFD820
:1021700006480C214180074800F09CF941B0BDE8B9
:10218000F08FFFE70221FFF7DDFDF7E710000020E9
:102190005801002058050020F0B41F4C1F49A388A7
:1021A000E588C8795A19B2F5806F30D201F580629E
:1021B0000E7816704E7856708E789670CE78D670EF
:1021C00000261671072656718E799671D071087A9D
:1021D0001072487A5072887A9072C87AD072002051
:1021E00001F5406C0BE000BF01EB40061A18777B4D
:1021F000B67B401C47EA06262CF8126080B2A84243
:10220000F2D30C216180F0BC054800F053B9F0BC5A
:102210000221FFF797BD00001000002058010020A8
:10222000580500200148FFF796BA00001001002071
:10223000F0B50268254C264D264E274F274B4FF010
:10224000804CA04209D0604507D0A84205D0B042DA
:1022500003D0B84201D0984204D122F0700E4A68EF
:1022600042EA0E02A0421BD0604519D0A84217D006
:10227000B04215D0B84213D0984211D0184DA842A0
:102280000ED0184DA8420BD0174DA84208D0174DBC
:10229000A84205D0164DA84202D0164DA84203D13F
:1022A00022F44075CA682A434D6922F080022A430D
:1022B00002608A68C2620A688262A04201D09842C3
:1022C00001D10969016301214161F0BD00000140B4
:1022D0000004004000080040000C004000040140E1
:1022E0000040014000440140004801400018004007
:1022F000001C00400020004070B5044600680169E1
:10230000E26821F44051114301612169A068E2694A
:1023100008436169114308432168CA6849F20C63A4
:102320009A430243CA6020684169A26921F440715E
:102330001143416131492068884202D030498842C6
:1023400002D1FEF71BFE01E0FEF708FEE269002362
:10235000192164253226B2F5004F626828D0A0FB0F
:102360000101930F9200FDF73FFF0146B0FBF5F02E
:102370006FF01802504301EB800006EB0010B0FB39
:10238000F5F000F0F002B1FBF5F002EB0012B1FB4A
:10239000F5F06FF01803584301EB800006EB0010D6
:1023A000B0FBF5F000F00F0021681044886070BDAC
:1023B000A0FB010192185B41FDF716FF0146B0FB3F
:1023C000F5F00201B1FBF5F06FF01803584301EB93
:1023D000800006EBC000B0FBF5F000F0F80002EB67
:1023E0004002B1FBF5F0584301EB800006EBC00062
:1023F000B0FBF5F000F00700D6E700000010014048
:1024000000140140FEE70907090E002804DB00F173
:10241000E02080F80014704700F00F0000F1E02089
:1024200080F8141D704702E008C8121F08C1002A76
:10243000FAD170477047002001E001C1121F002A45
:10244000FBD17047FEF7AABA03E00221491CB42968
:10245000FCDB401EC0B2F8D270470000FEF7E0FB84
:10246000FFF718FCFFF7FAFAFFF75AFBFFF734FB08
:102470000E490F48FEF728FA02E0C820FEF78EFA50
:102480000B48FDF760FF0128F7D008490848FEF720
:1024900047FA074C218AE068FEF7AAFB0028F9D129
:1024A00002490348FEF75CFAF4E700001C00002034
:1024B000400000208BB20349024601F12400FEF7E0
:1024C000A3B800001C000020FF21FFF7D2BB10B50D
:1024D000FFF7CFFBBDE810400220FFF7B5BFFFF7C5
:1024E000C8BB000000000000000001020304060752
:1024F0000809000000000102030400001C25000878
:102500000000002074000000262400089025000828
:1025100074000020E41C00003624000801000000C4
:1025200010000000000000000024F4000000000083
:10253000000000000000000000000000000000009B
:1025400000000003000100000000000000008813EC
:1025500058050020000000005801002074000020F1
:1025600000000240100000000000024000100000C7
:1025700000000000000000C0A8020AC0A80101FF7E
:10258000FFFF00000000000000000000000000004D
:04000005080001AD41
:00000001FF
