:020000040800F2
:10000000904200204D0200085B1300088D1200088A
:100010005913000843040008591E0008000000009E
:10002000000000000000000000000000DD190008D2
:1000300045040008000000005D130008DF190008F7
:1000400067020008670200086702000867020008EC
:1000500067020008670200086702000867020008DC
:1000600067020008670200086702000867020008CC
:1000700067020008670200086702000867020008BC
:1000800067020008670200086702000867020008AC
:10009000670200086702000867020008670200089C
:1000A000670200086702000867020008670200088C
:1000B000670200086702000867020008670200087C
:1000C000670200086702000867020008670200086C
:1000D0006702000867020008551E00086702000852
:1000E000670200086702000867020008670200084C
:1000F000670200086702000867020008670200083C
:10010000670200086702000867020008670200082B
:10011000670200086702000867020008991A0008D1
:10012000670200086702000867020008670200080B
:1001300067020008670200086702000867020008FB
:1001400067020008670200086702000867020008EB
:1001500067020008670200086702000867020008DB
:1001600067020008670200086702000867020008CB
:10017000670200086702000867020008000000002C
:1001800067020008670200086702000867020008AB
:10019000670200086702000867020008670200089B
:1001A00067020008670200086702000800F002F812
:1001B00000F03CF80AA090E8000C82448344AAF1C5
:1001C0000107DA4501D100F031F8AFF2090EBAE8C3
:1001D0000F0013F0010F18BFFB1A43F0010318477B
:1001E000081F0000281F0000103A24BF78C878C1FB
:1001F000FAD8520724BF30C830C144BF04680C602D
:10020000704700000023002400250026103A28BF74
:1002100078C1FBD8520728BF30C148BF0B60704778
:100220001FB501F04FFE1FBD10B510BD00F0CFF897
:100230001146FFF7F5FF01F021FE00F0EDF803B4E1
:10024000FFF7F2FF03BC00F0F5F800000948804713
:1002500009480047FEE7FEE7FEE7FEE7FEE7FEE7A8
:10026000FEE7FEE7FEE7FEE704480549054A064BC0
:10027000704700007D1A0008AD010008900D0020B5
:1002800090420020902200209022002053EA020C8D
:1002900000F069802DE9F04B4FF00006002B1FBFE6
:1002A000B3FA83F503FA05F424FA05F65E4012BFAB
:1002B0001643B2FA82F502FA05F4C5F120051EBF15
:1002C00022FA05FC44EA0C04203556EA044C4FEAB5
:1002D000144418BF641C4FF000084FF0000990420E
:1002E00071EB030C39D3002919BFB1FA81F701FA78
:1002F00007F6B0FA80F700FA07F6C7F120071EBF2D
:1003000020FA07FC46EA0C062037B6FBF4FCA7EB04
:100310000507103F07F01F0BCBF120060CFA0BFB73
:100320002CFA06F644BFB3460026202FA4BF5E4633
:100330004FF0000B5BEA060C08BF4FF0010B19EB06
:100340000B09ABFB027C48EB0608C01B06FB02CC8A
:100350000BFB03CC71EB0C01C1E70B460246414697
:100360004846BDE8F08B13B54FF000004FF0000198
:10037000AFF30080BDE81C4070474FF0000200B5AD
:10038000134694469646203922BFA0E80C50A0E8B8
:100390000C50B1F12001BFF4F7AF090728BFA0E866
:1003A0000C5048BF0CC05DF804EB890028BF40F832
:1003B000042B08BF704748BF20F8022B11F0804F74
:1003C00018BF00F8012B704770477047704775469B
:1003D00000F02CF8AE4605006946534620F00700B1
:1003E000854618B020B5FFF73FFFBDE820404FF02D
:1003F00000064FF000074FF000084FF0000B21F00F
:100400000701AC46ACE8C009ACE8C009ACE8C009DB
:10041000ACE8C0098D46704710B50446AFF30080C4
:100420002046BDE81040FFF70ABF000000487047B3
:100430002C0D002001491820ABBEFEE7260002006B
:100440007047FEE7704772B6FEE790F83510022954
:1004500003D08021416501207047052180F83510C7
:100460000068016821F00101016000207047000070
:100470002DE9F84F00224FF0010803254FF00F0E31
:100480000B6808FA02F42340A3426ED14E68012E95
:1004900005D0022E03D0112E01D0122E12D1866863
:1004A0004FEA420C05FA0CF7BE43CF6807FA0CF787
:1004B000374387604668A6430C79C4F30014944020
:1004C00034434460C668570005FA07FC8C6826EA86
:1004D0000C06BC403443C4604C68022C01D0122C82
:1004E00013D1D40800EB8404A346D4F82090540719
:1004F0004FEAD46A0EFA0AF629EA06090E6906FAE4
:100500000AF646EA0906CBF8206004680E7924EA68
:100510000C0406F00306BE40264306604C68E40067
:100520006FD53B4C266846F480462660246822F04E
:10053000030604F480440094364C3444A446D4F8B2
:1005400008489607360F0EFA06F7BC43324FB842FA
:1005500001D100272EE0314FB84201D1012729E017
:100560002F4FB84202D1022724E04AE02D4FB84273
:1005700001D103271EE02C4FB84201D1042719E016
:100580002A4FB84201D1052714E0294FB84201D1C2
:1005900006270FE0274FB84201D107270AE0264F70
:1005A000B84201D1082705E0244FB84201D10927FC
:1005B00000E00A27B7402743CCF80878204E34687B
:1005C0004F689C43FF0300D51C4334601C4E361D0E
:1005D00034684F689C43BF0300D51C433460184EF9
:1005E000083634684F689C43FF0200D51C433460D2
:1005F000134E0C3634684F689C43BF0200D51C4331
:100600003460521C102AFFF43BAFBDE8F88F0000A5
:100610004438024000300140000002400004024023
:1006200000080240000C024000100240001402408A
:1006300000180240001C024000200240002402403A
:10064000003C01400AB1816170470904FBE70000EA
:10065000014880687047000000000020024881685F
:100660000278114481607047000000200B4810B5EB
:10067000016841F400710160016841F4806101602A
:10068000016841F480710160032000F089F80020C6
:1006900000F006F800F03EF8002010BD003C0240DB
:1006A00010B5014688B00022372000F059F83720F5
:1006B00000F048F813480024016841F0200101606F
:1006C000006805A900F020000690684600F04CF98B
:1006D00000F06AF90C494000B0FBF1F10C480B4AFC
:1006E000491E026040F2E732C0E90324C0E9011468
:1006F00000F05CFB10B1012008B010BD044800F010
:1007000071FBF9E74038024040420F0000140040FE
:100710006C0000200A4808B5016841F4804101607E
:10072000006800F4804000900548001F016841F017
:1007300080510160006800F08050009008BD00000A
:1007400044380240002809DB00F01F0201219140DB
:100750004009800000F1E020C0F80011704700005F
:10076000F0B40E4B1B680C46C3F30223C3F107051C
:10077000042D00D90425191D072901D2002300E00A
:10078000DB1E012606FA05F1491E214099409E40D4
:10079000761E16403143F0BC01F05FBB0CED00E06B
:1007A000064900F0070208684FF6FF03184040EAC8
:1007B0000220034A10430860704700000CED00E07F
:1007C0000000FA052DE9F8431748016841F080510F
:1007D00001600068154F00F08050012600903E64D3
:1007E000FFF736FF05464FF47A78114C05E000BF5D
:1007F000FFF72EFF401B40450DD86068C003F7D5BA
:100800007E64FFF725FF0546464607E0FFF720FF19
:10081000401BB04202D90320BDE8F8836068800322
:10082000F4D50020F8E700004038024000000E42F6
:10083000007000402DE9F0470E46050065D0DFF856
:100840001481D8F80000F7B200F00F00B04207D2D0
:1008500088F80070D8F8000000F00F00B04254D1C2
:1008600028683D4C810712D5400703D5206840F425
:10087000E05020602878000703D5206840F46040ED
:1008800020602068A96820F0F000084320602878E4
:10089000C0072DD0304968680839012812D00228D5
:1008A00013D0032811D00968890700292DDA21689F
:1008B00021F0030101432160FFF7CAFE814641F2A6
:1008C000883A0EE009688903EFE709688901ECE7D7
:1008D000FFF7BEFEA0EB0901514502D90320BDE898
:1008E000F0872068696800F00C00B0EB810FEFD151
:1008F000D8F80010404601F00F01B14207D9077047
:10090000006800F00F00B04201D00120E7E728782E
:10091000400705D52068E96820F4E05008432060CE
:100920002878000706D52068296920F4604040EA4D
:10093000C100206000F058F82168084AC1F3031193
:10094000515CC8400649086006480068FFF7A8FEE9
:100950000020C4E7003C024008380240CE1E0008D8
:100960000C000020040000200F2202600C4A1368D3
:1009700003F003034360136803F0F003836013681C
:1009800003F4E053C36012684FF4E05303EAD20269
:1009900002610448006800F00F0008607047000022
:1009A00008380240003C02400448054900680968D4
:1009B000044AC1F38221515CC84070470C000020FA
:1009C00008380240DE1E000804480549006809682E
:1009D000044AC1F34231515CC84070470C0000200A
:1009E00008380240DE1E0008154810B5006810F0F7
:1009F0000C02144813D01449042A0FD0082A0ED12F
:100A00000F4C241F2268236802F03F025B0207D5C7
:100A10002068C0F38810A0FB010106E0084610BD65
:100A20002168C1F38811A1FB00010023FFF72EFC10
:100A30002168C1F30141491C4900B0FBF1F010BD30
:100A4000083802400024F40040787D012DE9F84F79
:100A500004006ED02078DFF83C93C007A9F10405AC
:100A60004AD009F104000168C1F38101012908D0CD
:100A70000068C0F3810002280AD1D9F800004002C2
:100A800006D52868800337D560680028E1D033E0B8
:100A90006068B0F5803F10D0B0F5A02F286810D066
:100AA00020F480302860286820F480202860606866
:100AB000A8B1FFF7CDFD06460DE0286840F4803070
:100AC000F4E740F480202860F7E700BFFFF7C0FD9F
:100AD000801B642873D828688003F7D50CE0FFF7E3
:100AE000B7FD064605E000BFFFF7B2FD801B642896
:100AF000F0D828688003F7D42078DFF89C8280073C
:100B00004FF0000A3ED5A348001D016811F00C0FFC
:100B100008D00068C0F3810002280BD1D9F800008A
:100B2000400207D42868800716D5E068012800D164
:100B300012E02BE1E068B8B10120C8F80000FFF72F
:100B400087FD064605E000BFFFF782FD801B0228F7
:100B5000C0D828688007F7D52868216920F0F800F8
:100B600040EAC10028600DE0C8F800A0FFF770FD62
:100B7000064604E0FFF76CFD801B02281FD828689A
:100B80008007F7D42078000722D5824E8348616918
:100B9000703671B101210160FFF75AFD074604E08C
:100BA000FFF756FDC01B022809D830688007F7D52B
:100BB0000EE0C0F800A0FFF74BFD074605E082E01D
:100BC000FFF746FDC01B02287DD830688007F7D4A8
:100BD0002078400768D5DFF8BCB100270BF13C0B4B
:100BE000DBF80000C0000BD4DBF8001041F08051AE
:100BF000CBF80010DBF80000012700F080500090D7
:100C0000674E3068C00510D4306840F480703060A2
:100C1000FFF71EFD009005E0FFF71AFD0099401A4E
:100C2000022850D83068C005F6D55A4EA0686C36F8
:100C300001280FD00528306810D020F00100306066
:100C4000306820F004003060A068B8B1FFF700FD04
:100C500000900FE0306840F00100F4E740F004003D
:100C60003060F7E7FFF7F4FC0099411A41F2883051
:100C7000814266D830688007F4D50EE0FFF7E8FCC3
:100C8000009007E0FFF7E4FC0099411A41F2883038
:100C9000814256D830688007F4D42FB1DBF80010B9
:100CA00021F08051CBF80010A069C8B33949091D63
:100CB0000968C1F3810102294AD00228504607D0B1
:100CC000C8F8600000E03CE0FFF7C2FC04463BE0EF
:100CD0004746C8F86000FFF7BBFC064605E000BFCA
:100CE000FFF7B6FC801B02282BD828688001F7D4B8
:100CF000D4E907010843A16A2A4A490802EB0141E5
:100D0000626A41EA8211084394F82C1040EA0161BA
:100D1000C9F8001001203866FFF79AFC044606E087
:100D200036E000BFFFF794FC001B022809D82868B2
:100D30008001F7D52CE000BFFFF78AFC001B0228DA
:100D400002D90320BDE8F88F28688001F4D41FE0A1
:100D50000128F7D0D9F80000E26900F4800191423F
:100D600014D1226A00F03F0191420FD147F6C071C1
:100D7000626A0140914209D1A26A00F44031914275
:100D800004D1E16A00F07060884201D00120D9E707
:100D90000020D7E70438024000004742800E474257
:100DA000007000400000FFFF7047704710B504005E
:100DB00003D094F83D0010B107E0012010BD0020E1
:100DC00084F83C00204600F00CF8022084F83D0036
:100DD000211D206800F066FE012084F83D000020FF
:100DE00010BD70470168CA6842F00102CA6000681D
:100DF000816801F00701062903D0016841F0010173
:100E0000016000207047704770B5044600680169B2
:100E10004FF00005C943890715D4C168C943890744
:100E200011D4E91E016101202077206880698007C4
:100E3000204602D0FFF7E7FF04E000F098F82046D4
:100E400000F096F8257720680169C943490717D44F
:100E5000C168C943490713D46FF00401016102203E
:100E600020772068806910F4407F204602D0FFF789
:100E7000CAFF04E000F07BF8204600F079F82577FF
:100E800020680169C943090716D4C168C943090725
:100E900012D46FF008010161042020772068C06936
:100EA0008007204602D0FFF7AEFF04E000F05FF8B5
:100EB000204600F05DF8257720680169C943C9061E
:100EC00017D4C168C943C90613D46FF0100101617A
:100ED000082020772068C06910F4407F204602D0A7
:100EE000FFF791FF04E000F042F8204600F040F8E0
:100EF000257720680169C943C90708D1C168C9437A
:100F0000C90704D1891E0161204600F033F820682A
:100F10000169C943090609D4C168C943090605D452
:100F20006FF0800101612046FFF73EFF20680169F4
:100F3000C943490609D4C168C943490605D46FF0BD
:100F400040010161204600F01FF820680169C94393
:100F500089060BD4C168C943890607D46FF0200104
:100F600001612046BDE87040FFF71FBF70BD7047AC
:100F70007047000000680349884201D1FFF76EBB4B
:100F800070470000001400407047704770B5026859
:100F900004461068D168536910F00F0F52D003F067
:100FA000010501F490762E435FD0C20705D0CA0533
:100FB00003D5E26B42F00102E263420705D5DA078E
:100FC00003D0E26B42F00202E263820705D5DA0742
:100FD00003D0E26B42F00402E263020707D501F09E
:100FE00020022A4303D0E26B42F00802E263E26B84
:100FF000002A33D0800604D5880602D5204600F0AA
:10100000CBFD20684069E16BC0F38010090700D474
:1010100028B3204600F0B2FD2068416949061AD580
:10102000416921F040014161606BA0B11B4901653C
:10103000606BFFF70AFA002810D0606B016DBDE805
:1010400070400847830610D58B060ED52046BDE8B4
:10105000704000F0A1BD2046FFF797FF70BD20460D
:10106000FFF793FF0020E06370BD030606D50B0673
:1010700004D52046BDE8704000F06EBE4006F3D5B2
:101080004806F1D5D168204621F04001D1602021E9
:1010900084F8391000F0F9F870BD00006D1B0008ED
:1010A00070B5040004D094F83900002510B106E0B2
:1010B000012070BD84F83850204600F023F8242029
:1010C00084F839002068C16821F40051C1602046CD
:1010D00000F0AEFD2068016921F4904101612068B3
:1010E000416921F02A0141612068C16841F4005141
:1010F000C160E563202084F8390084F83A000020BC
:1011000070BD000010B586B0044614216846FFF794
:1011100034F917492068884228D11648002102680E
:1011200042F400320260006800F40030059011487B
:101130001038026842F008020260006800F00800FF
:101140000590602000900220CDE90101032003906A
:101150000720049069460848FFF78AF900221146E3
:101160002620FFF7FDFA2620FFF7ECFA06B010BDA7
:101170000044004040380240000C024090F83A30F1
:10118000202B22D1F9B1F2B190F83830012B1CD0CC
:1011900081628285C2850021C163222280F83A20C3
:1011A00080F838100168CA6842F48072CA60016829
:1011B0004A6942F001024A610068C16841F02001B9
:1011C000C1600020704701207047022070477047BF
:1011D0002DE9F843044690F839001F4616460D469F
:1011E000202850D1B5B1AEB194F8380001284AD0CA
:1011F000012084F838004FF00008C4F83C8021201A
:1012000084F83900FFF724FAA6848146E68484F83E
:10121000388026E00120BDE8F883E08C401EE084A1
:10122000A0684B46B0F5805F4FF000024FF08001A0
:101230002046009703D000F0DBFDE8B90DE000F098
:10124000D7FDC8B928882168C0F308004860206924
:1012500008B16D1C05E0AD1C03E0216815F8010B19
:101260004860E08C0028D8D14B460022402120461F
:10127000009700F0BDFD08B10320CCE7202084F8E2
:1012800039000020C7E70220C5E77047FEE70000ED
:1012900070B586B014216846FFF76FF81E48002528
:1012A000016841F004010160016801F00401059149
:1012B000016841F080010160016801F08001059141
:1012C000016841F001010160016801F0010105912F
:1012D000016841F008010160016801F00801059111
:1012E000016841F00201016000680C4E00F002004C
:1012F0004FF480740590002221463046FFF7A2F992
:101300000120CDE900400220CDE9020569463046C2
:10131000FFF7AEF806B070BD30380240000402405E
:101320000C4810B50A4901604FF416514160002184
:1013300081600C22C160C0E904128161C161FFF7C4
:10134000AFFE002803D0BDE81040FFF77CB810BD09
:10135000004400402C000020FEE7FEE7704700003C
:1013600070B5094DFF231A4605F5807606E000BFEB
:1013700010F8014B54402A5D5A40335D491EC9B2F2
:10138000F6D242EA032070BDE61E00081CB5012219
:101390008DF8002040F080008DF801008DF80210DB
:1013A00003216846FFF7DCFF8DF80300000A8DF883
:1013B00004000521684600F001FD1CBD38B5154C40
:1013C0002068006800684FF00005C04380060ED416
:1013D0001148FFF7DBFDA07A08B90120A072228A2C
:1013E000E168E07A8854208A401C2082E5722068F7
:1013F00001680A68D243D20604D40A684968009199
:101400000221A172BDE83840024901220B31FFF7E9
:10141000B5BE0000100000202C00002010B51F4CAD
:10142000E0680178012901D0FF2921D1217C891EA2
:10143000C9B2FFF795FF228AE1680A4432F8022C0C
:10144000904215D1487805281BD008DC012812D01D
:10145000022810D0032811D0042806D10EE0062857
:1014600012D00F2813D0102814D00121FFF78EFFBF
:101470000020208210BD00F013F8F9E700F0ACF86E
:10148000F6E700F0F7F8F3E700F042F9F0E700F0D4
:1014900085F9EDE700F046FAEAE7000010000020C9
:1014A0002DE9F04F93B024216846FEF766FF242112
:1014B00009A8FEF762FF474B4FF48064D868418863
:1014C000828849BA52BAA14279D25518A54278D831
:1014D0001E2A76D804788DF8004040788DF80100F7
:1014E000C2F3C700520700D109B1401CC0B28DF849
:1014F0000200CD0801F0070400210DF124095A690A
:1015000008E06B1809EB4106D75C7770D35C491C87
:10151000B370C9B28142F4D30022EA464FF0010B06
:1015200036E000BF09EB4201C4F108064B780AEB34
:101530000205E3404B7000230FE04F785FEAC77C61
:1015400007D095F803800BFA03FC48EA0C0885F8ED
:1015500003807F085B1C4F70DBB29E42EDDC0023F2
:1015600012E00E79F7070BD0A3EB040895F803C03F
:1015700008F108080BFA08F74CEA070C85F803C0D5
:1015800076085B1C0E71DBB2A342EAD3521CD2B2C6
:101590008242C7D3C01CC4B221465046FFF7E0FECA
:1015A0000AF80400641CE1B2000A0AF80100491CB0
:1015B000C9B2684600F002FC13B0BDE8F08F06E047
:1015C000FFE740785FF00301FFF7E0FEF4E74078C3
:1015D0000221F9E710000020F0B589B02421684607
:1015E000FEF7CBFE224B4FF48064D86841884ABA9C
:1015F0008188A24249BA38D28D18A54230D81E2916
:101600002ED804788DF8004040788DF80100480607
:10161000050E8DF8025000206C469B690CE01618F0
:1016200004EB400713F816C087F803C033F81660C0
:10163000360A401C3E7180B28842F0D3ED1CEDB2F8
:1016400029462046FFF78CFE60556D1CE9B2000A62
:101650006054491CC9B2684600F0B0FB09B0F0BD47
:1016600040780321FFF792FEF8E740780221F9E77E
:10167000100000203EB50020009001900290234809
:10168000C1684A8852BAB2F5806F3BD20C79FF2C00
:1016900000D024B94B7913B9038A082B05D04878B8
:1016A0005FF00301FFF772FE3EBDD10802F00705AF
:1016B000164A0123FF2C526903FA05F3545C1FD02C
:1016C0009C435454C06801788DF8001041788DF81F
:1016D000011081788DF80210C1788DF8031001791E
:1016E0008DF8041041798DF8051081798DF8061078
:1016F000C0798DF807000821684600F05FFB3EBD09
:101700001C43DEE748780221CCE7000010000020EF
:101710003EB500201F49009001900290CA68508891
:1017200040BAB0F5806F31D20B8A082B05D05078C3
:101730005FF00301FFF72AFE3EBD174A8B6914795B
:1017400023F8104052798B6944EA022223F81020D2
:10175000C86801788DF8001041788DF80110817803
:101760008DF80210C1788DF8031001798DF80410FE
:1017700041798DF8051081798DF80610C0798DF8C2
:1017800007000821684600F019FB3EBD5078022191
:10179000D0E7000010000020AC0000202DE9F04F41
:1017A00095B000200E900F901090242105A8FEF710
:1017B000E4FD5A484FF48064C2685188938849BA5E
:1017C0005BBAA1427ED25D18A5427CD81E2B7AD886
:1017D000038A9479093B9C4275D1CC0801F0070536
:1017E00000214FF0010A0DF11409DFF834B163E074
:1017F0000BEB01030022DE7909F80160C5F1080650
:101800002BE0DF79FF0710D0476904EB010E019749
:1018100017F80EC002F007080AFA08F7AF404CEAC2
:10182000070C019F07F80EC012E0D0F8148004EBFB
:10183000010ECDF8488018F80EC002F007080AFA29
:1018400008F7DDF84880AF402CEA070C08F80EC016
:10185000DF797F08521CDF71D2B29642D1DC0023BF
:101860004A1C26E019F80170F740FF0747690CD0C1
:1018700007EB040E03F007081EF802700AFA08FCD2
:1018800047EA0C070EF802700BE007EB040E03F0BA
:1018900007081EF802C00AFA08F72CEA070C0EF82F
:1018A00002C019F801C05B1C4FEA5C0C09F801C0CA
:1018B000DBB2AB42D6D3D1B29BF806308B4297D87D
:1018C000C06801E027E021E001788DF83810417808
:1018D0008DF8391081788DF83A10C1788DF83B1069
:1018E00001798DF83C1040798DF83D0006210EA855
:1018F000FFF736FD8DF83E00000A8DF83F00082105
:101900000EA800F05BFA15B0BDE8F08F5078032107
:10191000FFF73CFDF7E750780221F9E710000020BF
:10192000AC000020FEB500200090019002902948F4
:101930004FF48064C1684A888B8852BA5BBAA2426D
:1019400045D29D18A5423CD81E2B3AD8048A8D79E1
:10195000093CA54235D100211F4F0FE007EB41069E
:10196000D0F818C05518F4792CF81540367AD0F80C
:1019700018C044EA0624491C2CF815409942EDDBB6
:10198000C06801788DF8001041788DF801108178D9
:101990008DF80210C1788DF8031001798DF80410CC
:1019A00040798DF8050006216846FFF7D9FC8DF8CF
:1019B0000600000A8DF807000821684600F0FEF9CD
:1019C000FEBD48785FF00301FFF7E0FCFEBD4878FC
:1019D0000221F9E710000020AC000020704770479A
:1019E00070B592B030216846FEF7C7FC14210CA8F0
:1019F000FEF7C3FC1F480025016841F080510160DB
:101A0000006800F0805011901B48016841F440418B
:101A100001600068022400F4404011900120009011
:101A2000000401908001CDE906400F260896D820D9
:101A3000CDE9090404200B906846FFF707F808B1C8
:101A400072B6FEE7FEF7BEFE08B172B6FEE74FF4CF
:101A5000A050CDE90E504FF48050CDE90C641090A9
:101A600005210CA8FEF7E6FE002801D072B6FEE7BD
:101A700012B070BD40380240007000400548016857
:101A800041F47001016003494FF000608039086043
:101A90007047000088ED00E00148FFF7B5B900008D
:101AA0006C000020F0B50268254C264D264E274FCD
:101AB000274B4FF0804CA04209D0604507D0A84288
:101AC00005D0B04203D0B84201D0984204D122F0F0
:101AD000700E4A6842EA0E02A0421BD0604519D03F
:101AE000A84217D0B04215D0B84213D0984211D0B6
:101AF000184DA8420ED0184DA8420BD0174DA84241
:101B000008D0174DA84205D0164DA84202D0164D58
:101B1000A84203D122F44075CA682A434D6922F0D5
:101B200080022A4302608A68C2620A688262A04216
:101B300001D0984201D10969016301214161F0BDE1
:101B4000000001400004004000080040000C00407C
:101B500000040140004001400044014000480140B1
:101B600000180040001C00400020004010B5806BB1
:101B70000021C185C184FFF708FA10BD0168CA6859
:101B800022F49072CA6001684A6922F001024A6137
:101B9000202180F83A10704710B590F83A102229A9
:101BA00001D0022010BD8168B1F5805F11D00169BC
:101BB000002901681FD0496801F07F03816A4A1C2F
:101BC00082620B70C18D491E0904090CC18518D0B1
:101BD0002BE00269816A002A0268526805D0D2B2FD
:101BE0000A80816A491C8162ECE7C2F308020A801C
:101BF000816A891CF7E74A68816A4B1C83620A7014
:101C0000E0E70168CA6822F02002CA600168CA6879
:101C100022F48072CA6001684A6922F001024A61B6
:101C2000202180F83A10FFF7D2FA002010BD000002
:101C30002DE9F041044600680169E26821F4405151
:101C4000114301612169A068E26908436169114398
:101C500008432168CA6849F20C639A430243CA6088
:101C600020684169A26921F4407111434161E06932
:101C7000192764253226B0F5004F354A35492068CA
:101C80004FF0000806D0884201D0904236D1FEF7CE
:101C90009BFE35E0884201D0904202D1FEF794FECF
:101CA00001E0FEF781FE61684A18A0FB070148EBDE
:101CB0000803FEF7EBFA0146B0FBF5F00201B1FBB9
:101CC000F5F06FF01803584301EB800006EBC000FD
:101CD000B0FBF5F000F0F80002EB4002B1FBF5F0CC
:101CE000584301EB800006EBC000B0FBF5F000F0BC
:101CF0000700216810448860BDE8F081FEF754FEBB
:101D000061688B0F8A00A0FB0701FEF7BFFA01464E
:101D1000B0FBF5F06FF01802504301EB800006EBCA
:101D20000010B0FBF5F000F0F002B1FBF5F002EBB3
:101D30000012B1FBF5F06FF01803584301EB80007F
:101D400006EB0010B0FBF5F000F00F00D1E700004B
:101D5000001401400010014090F83910212901D0F1
:101D6000022070478168B1F5805F016A0BD04A1C80
:101D70000262026809785160C18C491E0904090C8D
:101D8000C1840ED017E009880268C1F308015160D0
:101D900001690029016A02D0491C0162ECE7891C33
:101DA000FBE70168CA6822F08002CA600068C16867
:101DB00041F04001C16000207047000070B50B4C3D
:101DC0000D460646218901226068FEF73BFC4FF66E
:101DD000FF732A4631462068FFF7FAF9218900226D
:101DE0006068FEF72FFC0020208270BD10000020EC
:101DF0002DE9F041984617460E460446069D1DE023
:101E0000681C1BD02DB1FEF723FCA0EB0800A842F4
:101E100014D92068C16821F4D071C160206841697B
:101E200021F001014161202084F8390084F83A0052
:101E3000002084F838000320BDE8F08120680068A5
:101E400036EA000004D00020B842D9D00020F3E7E1
:101E50000120F9E7FFF7B2BAFEE70907090E0028EB
:101E600004DB00F1E02080F80014704700F00F0060
:101E700000F1E02080F8141D70470000FEF7F6FB2B
:101E8000FFF7AEFDFFF704FAFFF74AFA0C4C002209
:101E900021896068FEF7D6FB20680068C16841F0C0
:101EA0001001C160012204F10B012068FFF766F9FF
:101EB0000025A07A0228FCD1FFF7B0FAA572F8E756
:101EC000100000204FF04070E1EE100A7047000053
:101ED00000000000000001020304060708090000DA
:101EE00000000102030400C1814001C0804101C023
:101EF000804100C1814001C0804100C1814000C1DA
:101F0000814001C0804101C0804100C1814000C1C9
:101F1000814001C0804100C1814001C0804101C0B9
:101F2000804100C1814001C0804100C1814000C1A9
:101F3000814001C0804100C1814001C0804101C099
:101F4000804100C1814000C1814001C0804101C089
:101F5000804100C1814001C0804100C1814000C179
:101F6000814001C0804101C0804100C1814000C169
:101F7000814001C0804100C1814001C0804101C059
:101F8000804100C1814000C1814001C0804101C049
:101F9000804100C1814001C0804100C1814000C139
:101FA000814001C0804100C1814001C0804101C029
:101FB000804100C1814001C0804100C1814000C119
:101FC000814001C0804101C0804100C1814000C109
:101FD000814001C0804100C1814001C0804101C0F9
:101FE000804100C1814000C0C101C30302C2C606D6
:101FF00007C705C5C404CC0C0DCD0FCFCE0E0ACA41
:10200000CB0BC90908C8D81819D91BDBDA1A1EDE90
:10201000DF1FDD1D1CDC14D4D515D71716D6D21240
:1020200013D311D1D010F03031F133F3F23236F650
:10203000F737F53534F43CFCFD3DFF3F3EFEFA3A00
:102040003BFB39F9F83828E8E929EB2B2AEAEE2E90
:102050002FEF2DEDEC2CE42425E527E7E62622E200
:10206000E323E12120E0A06061A163A3A26266A650
:10207000A767A56564A46CACAD6DAF6F6EAEAA6AC0
:102080006BAB69A9A86878B8B979BB7B7ABABE7E10
:102090007FBF7DBDBC7CB47475B577B7B67672B2C0
:1020A000B373B17170B05090915193535292965650
:1020B0005797559594549C5C5D9D5F9F9E5E5A9A80
:1020C0009B5B99595898884849894B8B8A4A4E8E10
:1020D0008F4F8D4D4C8C4484854587474686824280
:1020E0004383418180400000082100080000002057
:1020F0002C000000E8010008342100082C0000201A
:10210000644200000402000801000000100000000A
:10211000000000000024F4002C0000200004024015
:1021200000010000AC00002000000000AC04002012
:042130002C0500205A
:04000005080001AD41
:00000001FF
